:100000000EC01DC01CC01BC01AC019C018C017C02C
:1000100016C015C014C013C012C011C010C01124E6
:100020001FBECFE5D2E0DEBFCDBF20E0A0E6B0E04E
:1000300001C01D92A03EB207E1F73DD150C1E0CF13
:1000400086B38A7390E0089528E030E044E055E0FC
:1000500018BA80FF07C058BB959587952150310984
:10006000B9F7089548BBF8CF8830910588F4683017
:10007000710570F423E0880F991F2A95E1F7860F28
:10008000971FFC01EE0FFF1FE05AFF4F5183408383
:1000900008958830910590F46830710578F423E074
:1000A000880F991F2A95E1F7860F971FFC01EE0F25
:1000B000FF1FE05AFF4F8081918108958FEF9FEFDE
:1000C0000895E0E6F0E091838083938382839583B3
:1000D0008483978386839187808793878287958798
:1000E000848797878687709620E0E03EF20759F76D
:1000F00008958F929F92AF92BF92CF92DF92EF922C
:10010000FF920F931F93CF93DF935C0100E610E003
:1001100090E7C92E90E0D92ED0E0C0E01DC0D401F8
:10012000ED91FC9184E0EE0FFF1F8A95E1F7EA0D57
:10013000FB1DEC0FFD1F8081918186DFBFEFEB1A65
:10014000FB0A80E1880E911CA8E0EA16F10439F759
:100150002296C031D10521F04801F12CE12CDFCFEE
:100160000E5F1F4FC016D106B9F6DF91CF911F91D8
:100170000F91FF90EF90DF90CF90BF90AF909F9046
:100180008F9008950F931F93CF93DF9310E000E0BB
:10019000D0E0C0E0C430D1052CF48FEF90E0003205
:1001A000110514F090E080E04FDF2196C830D105B2
:1001B00089F70F5F1F4F0034110551F7DF91CF9181
:1001C0001F910F9108950F931F93CF93DF9310E02A
:1001D00000E0D0E0C0E0C430D1052CF48FEF90E017
:1001E0000032110514F490E080E02EDF2196C83033
:1001F000D10589F70F5F1F4F0034110551F7DF91CB
:10020000CF911F910F9108950F931F93CF93DF9379
:1002100010E000E0D0E0C0E0C430D1052CF08FEF5A
:1002200090E00032110514F090E080E00DDF21969F
:10023000C830D10589F70F5F1F4F0034110551F702
:10024000DF91CF911F910F9108950F931F93CF933B
:10025000DF9310E000E0D0E0C0E0C430D1052CF026
:100260008FEF90E00032110514F490E080E0ECDEB6
:100270002196C830D10589F70F5F1F4F0034110553
:1002800051F7DF91CF911F910F9108950F931F9315
:10029000CF93DF9300E410E0C8E0D0E090E080E08E
:1002A000D3DE2197D9F701501109B1F7DF91CF9132
:1002B0001F910F9108958FE087BB18BA63DF86B353
:1002C0008A73E9F3883029F47EDFB59BFECFBDDF6A
:1002D000F5CF803299F798DFB39BFECFF8CFF89433
:0202E000FFCF4E
:00000001FF
