:100000000EC01DC01CC01BC01AC019C018C017C02C
:1000100016C015C014C013C012C011C010C01124E6
:100020001FBECFE5D2E0DEBFCDBF20E0A0E6B0E04E
:1000300001C01D92A03EB207E1F7A4D0E0C0E0CF1E
:1000400086B38A7390E0089528E030E044E055E0FC
:1000500018BA80FF07C058BB959587952150310984
:10006000B9F7089548BBF8CF8830910588F4683017
:10007000710570F423E0880F991F2A95E1F7860F28
:10008000971FFC01EE0FFF1FE05AFF4F5183408383
:1000900008958830910590F46830710578F423E074
:1000A000880F991F2A95E1F7860F971FFC01EE0F25
:1000B000FF1FE05AFF4F8081918108958FEF9FEFDE
:1000C0000895E0E6F0E091838083938382839583B3
:1000D0008483978386839187808793878287958798
:1000E000848797878687709620E0E03EF20759F76D
:1000F00008958F929F92AF92BF92CF92DF92EF922C
:10010000FF920F931F93CF93DF935C0100E610E003
:1001100090E7C92E90E0D92ED0E0C0E01DC0D401F8
:10012000ED91FC9184E0EE0FFF1F8A95E1F7EA0D57
:10013000FB1DEC0FFD1F8081918186DFBFEFEB1A65
:10014000FB0A80E1880E911CA8E0EA16F10439F759
:100150002296C031D10521F04801F12CE12CDFCFEE
:100160000E5F1F4FC016D106B9F6DF91CF911F91D8
:100170000F91FF90EF90DF90CF90BF90AF909F9046
:100180008F9008958FE087BB18BA07E010E0CC2469
:10019000C394D12CE12C82E0F82ED0E0C0E01BC04B
:1001A000209749F4A601022E02C0440F551F0A945D
:1001B000E2F7842B952BC00FD11FC830D1050CF06E
:1001C00028972F5F3F4F2830310551F73DDF21E061
:1001D000E21AF10829F030E020E090E080E0E0CF82
:1001E0008FEF90E722E0815090402040E1F700C07F
:1001F00000000150110970F690E080E00895F89435
:02020000FFCF2E
:00000001FF
