:100000000EC028C027C026C025C024C023C022C0DF
:1000100021C020C01FC01EC01DC01CC01BC0112499
:100020001FBECFE5D2E0DEBFCDBF10E0A0E6B0E05E
:10003000E0E2F7E002C005900D92A038B107D9F7D1
:1000400021E0A0E8B0E001C01D92AE32B207E1F7B6
:100050003BD364C3D5CF86B38A7390E0089528E07C
:1000600030E044E055E018BA80FF07C058BB9595D2
:10007000879521503109B9F7089548BBF8CF8830EA
:10008000910588F46830710570F423E0880F991F9A
:100090002A95E1F7860F971FFC01EE0FFF1FE2552F
:1000A000FF4F5183408308958830910590F4683064
:1000B000710578F423E0880F991F2A95E1F7860FE0
:1000C000971FFC01EE0FFF1FE255FF4F80819181CA
:1000D00008958FEF9FEF0895EEEAF0E0918380831B
:1000E0009383828395838483978386839187808794
:1000F000938782879587848797878687709621E084
:10010000EE32F20759F708958F929F92AF92BF9205
:10011000CF92DF92EF92FF920F931F93CF93DF93D3
:100120005C010EEA10E09EEBC92E90E0D92ED0E0E3
:10013000C0E01DC0D401ED91FC9184E0EE0FFF1FE3
:100140008A95E1F7EA0DFB1DEC0FFD1F808191817F
:1001500086DFBFEFEB1AFB0A80E1880E911CA8E056
:10016000EA16F10439F72296C031D10521F0480191
:10017000F12CE12CDFCF0E5F1F4FC016D106B9F670
:10018000DF91CF911F910F91FF90EF90DF90CF9073
:10019000BF90AF909F908F900895681779070CF4E7
:1001A000CB010895861797070CF4CB01089584E8D6
:1001B00090E008958091AC009091AD00880F991F58
:1001C000880F991F80589F4F0895FC012281338129
:1001D0002F5F3F4F338322830895FC0122813381B7
:1001E00021503109338322830895E0E8F0E084A5AB
:1001F00095A5019795A784A7089580918400909173
:10020000850008959B01FC0137FD1CC0C90153E026
:10021000969587955A95E1F768EF7FEF6ED2280F94
:10022000391FF7FD12C0CF0143E0969587954A9597
:10023000E1F768EF7FEF61D2BF01680F791FCB0153
:10024000B9010895285F3F4FDFCF3896EACF9A0172
:10025000FB018130910561F0009741F082309105FA
:1002600049F0039751F0CF01B901CCCF3197FBCFC3
:100270003196F9CF2F5F3F4FF6CF21503109F3CFA1
:10028000CF93DF93DB01FC01E9012130310589F0D7
:10029000CD2B59F02230310579F02330310579F03A
:1002A000BD01CF01DF91CF910895FA01E80FF91F49
:1002B000F7CFE41BF50BF4CFA41BB50BF1CFDA019C
:1002C000A60FB71FEDCF4F925F926F927F92AF92C2
:1002D000BF92CF92DF92EF92FF920F931F93CF9333
:1002E000DF9329013A01A8019701EB016C0182011A
:1002F0005301C301B201C4DFAB019C01C415D50594
:1003000091F4C617D70779F46816790614F45C01DE
:100310009301C216D3064CF181E090E0AC14BD0409
:10032000ACF480E013C0CA14DB04F9F4C216D3069F
:10033000E1F40417150714F48B01A201C417D507C3
:10034000A4F081E090E00C171D075CF3DF91CF91E2
:100350001F910F91FF90EF90DF90CF90BF90AF90E3
:100360007F906F905F904F90089580E090E0EECF87
:100370002F923F924F925F926F927F928F929F92B5
:10038000AF92BF92CF92DF92EF92FF920F931F93A3
:10039000CF93DF9300D000D0CDB7DEB7209180009F
:1003A0002983309181003A8330908200209083002D
:1003B000D22EC32E510184E8882E80E0982E1C8214
:1003C0001B828091AC009091AD00EB81FC818E1777
:1003D0009F0719F490E080E019C0F401419051901A
:1003E000619071904F012B813C81232B31F183016E
:1003F00072012D2D3C2D4B2D5A2D69817A81832D33
:10040000922D61DF892BC9F081E090E00F900F9071
:100410000F900F90DF91CF911F910F91FF90EF9070
:10042000DF90CF90BF90AF909F908F907F906F9014
:100430005F904F903F902F900895A30192016D2DF2
:100440007C2D8B2D9A2D1CDFD62EC72EB82EA92ED3
:100450008B819C8101969C838B83B3CFAF92BF929B
:10046000DF92EF92FF920F931F93CF93DF935B0185
:10047000DC016217730751F0EB01C21BD30B63E081
:10048000D62ED7FF0AC052E0D52E07C0EC01C41B00
:10049000D50BDD2EDD1CDD24DD1CD7FF03C0D1957F
:1004A000C195D10910E000E0EE24E394F12C0C1783
:1004B0001D0751F4DF91CF911F910F91FF90EF90A5
:1004C000DF90BF90AF900895A501BD018D2D90E004
:1004D000BEDE5B01DC01FB0123E0EE0FFF1F2A956E
:1004E000E1F7E80FF91FEE0FFF1FE255FF4FF18212
:1004F000E0820F5F1F4FDBCF8F929F92AF92BF9230
:10050000CF92DF92EF92FF924B015C01B9DE6B015B
:100510007C01AC019B01C501B401A0DFC701B6019C
:10052000FF90EF90DF90CF90BF90AF909F908F9013
:100530000895CF93DF936091800070918100809146
:10054000820090918300D0E0C0E02091AC00309117
:10055000AD00C217D30718F0DF91CF91089521960F
:10056000FE01EE0FFF1FEE0FFF1FE058FF4F20812F
:10057000318142815381C0DFE8CF409180005091AA
:10058000810060918200709183008091840090913D
:1005900085005DDE6093800070938100809382000F
:1005A00090938300E091AC00F091AD0080918600C3
:1005B0009091870001969093870080938600EE0FBC
:1005C000FF1FEE0FFF1FE458FF4F868197810197B1
:1005D00097838683892B09F408CE0895CF92DF9202
:1005E000EF92FF922091AC003091AD00A901F9018A
:1005F000EE0FFF1FEE0FFF1FE058FF4F14161506FA
:100600009CF0909385008093840010928700109254
:1006100086002F5F3F4F3093AD002093AC00FF90DA
:10062000EF90DF90CF90089541505109C080D18064
:10063000E280F380C482D582E682F7823497DECFEF
:10064000209184003091850086B384FD0CC085FD27
:100650000DC081FD0EC083FF0FC081E090E08217C6
:10066000930751F0BBCF83E090E0F9CF82E090E0B8
:10067000F6CF90E080E0F3CF08958FE087BB18BA03
:100680000895E0E8F0E084E090E091838083938334
:10069000828381E090E095A784A782E090E0958333
:1006A000848387E090E097838683089590E080E0DC
:1006B00013DDE7DF2FEF83ED90E321508040904082
:1006C000E1F700C000000895D8DFDBDFB9DF55DFB8
:1006D00090E080E001DD2DDF80E690E015DD48DE72
:1006E000892B09F0E3DF2FEF81EE94E02150804069
:1006F0009040E1F700C00000E9CF0024552704C076
:10070000080E591F880F991F009729F07695679555
:10071000B8F37105B9F7802D952F0895F894FFCFA0
:1007200000000000000000000000000000000000C9
:10073000FF00FF00FF00FF00FF00FF00FF00FF00C1
:00000001FF
