:100000000EC028C027C026C025C024C023C022C0DF
:1000100021C020C01FC01EC01DC01CC01BC0112499
:100020001FBECFE5D2E0DEBFCDBF10E0A0E6B0E05E
:10003000EAE5F3E002C005900D92AE39B107D9F7B9
:1000400021E0AEE9B0E001C01D92A632B207E1F7AF
:1000500018D181C1D5CF86B38A7390E0089528E086
:1000600030E044E055E018BA80FF07C058BB9595D2
:10007000879521503109B9F7089548BBF8CF8830EA
:10008000910588F46830710570F423E0880F991F9A
:100090002A95E1F7860F971FFC01EE0FFF1FEE5523
:1000A000FF4F5183408308958830910590F4683064
:1000B000710578F423E0880F991F2A95E1F7860FE0
:1000C000971FFC01EE0FFF1FEE55FF4F80819181BE
:1000D00008958FEF9FEF0895E2EAF0E09183808327
:1000E0009383828395838483978386839187808794
:1000F000938782879587848797878687709621E084
:10010000E232F20759F708958F929F92AF92BF9211
:10011000CF92DF92EF92FF920F931F93CF93DF93D3
:100120005C0102EA10E092EBC92E90E0D92ED0E0FB
:10013000C0E01DC0D401ED91FC9184E0EE0FFF1FE3
:100140008A95E1F7EA0DFB1DEC0FFD1F808191817F
:1001500086DFBFEFEB1AFB0A80E1880E911CA8E056
:10016000EA16F10439F72296C031D10521F0480191
:10017000F12CE12CDFCF0E5F1F4FC016D106B9F670
:10018000DF91CF911F910F91FF90EF90DF90CF9073
:10019000BF90AF909F908F900895EF92FF920F9332
:1001A0001F93CF93DF9310E000E0D0E0C0E01CC0CD
:1001B00080919E0090919F0080179107C1F48091DB
:1001C0002201909123018E159F0589F48FEF90E015
:1001D00046DF8FEFE81AF80A88E0E816F10441F7E5
:1001E0002196C830D105E1F0F12CE12CE1CF8091CE
:1001F000A0009091A1008017910779F480912401CB
:10020000909125018E159F0541F42097F9F281E820
:1002100090E0C730D105E1F6D9CF90E080E0D8CFAB
:100220000F5F1F4F0830110509F0BFCFDF91CF914D
:100230001F910F91FF90EF900895089738F481E097
:1002400090E06830710520F080E0089580E090E053
:1002500008958FE087BB18BA84E090E09093230163
:100260008093220190939F0080939E0081E090E014
:1002700090932501809324019093A1008093A00086
:100280000895E7DF86B38A738250990B8F31910509
:1002900008F053C0FC01E158FF4F2081022E000CF2
:1002A000330B805A9F4FFC018081082E000C990B64
:1002B0006091220170912301620F731F68307105F4
:1002C00090F540919E0050919F00480F591F483073
:1002D000510548F5A0912401B0912501A617B70753
:1002E00089F5E091A000F091A100E417F50751F520
:1002F0002A0F3B1F28303105A8F48E0F9F1F88302E
:10030000910580F4B0932301A0932201F0939F0004
:10031000E0939E0030932501209324019093A10047
:100320008093A0003ADFFFEF20E782E0F150204009
:100330008040E1F700C00000A5CF90E080E030E011
:1003400020E0B6CF709323016093220150939F0069
:0A03500040939E00E7CFF894FFCF22
:10035A00FF00000000000100000000000000000093
:10036A000000000000000000000000000000000083
:10037A0000000000000000000000000000FF000074
:0E038A00000000000000000000000000000164
:00000001FF
