:100000000EC028C027C026C025C024C023C022C0DF
:1000100021C020C01FC01EC01DC01CC01BC0112499
:100020001FBECFE5D2E0DEBFCDBF11E0A0E6B0E05D
:10003000ECE5F5E002C005900D92A238B107D9F7C2
:1000400022E0A2E8B1E001C01D92A632B207E1F7BA
:10005000B5D182C2D5CF86B38A7390E0089528E0E7
:1000600030E044E055E018BA80FF07C058BB9595D2
:10007000879521503109B9F7089548BBF8CF8830EA
:10008000910588F46830710570F423E0880F991F9A
:100090002A95E1F7860F971FFC01EE0FFF1FEA5725
:1000A000FE4F5183408308958830910590F4683065
:1000B000710578F423E0880F991F2A95E1F7860FE0
:1000C000971FFC01EE0FFF1FEA57FE4F80819181C1
:1000D00008958FEF9FEF0895E6E8F1E09183808324
:1000E0009383828395838483978386839187808794
:1000F000938782879587848797878687709622E083
:10010000E630F20759F708958F929F92AF92BF920F
:10011000CF92DF92EF92FF920F931F93CF93DF93D3
:100120005C0106E811E096E9C92E91E0D92ED0E0F5
:10013000C0E01DC0D401ED91FC9184E0EE0FFF1FE3
:100140008A95E1F7EA0DFB1DEC0FFD1F808191817F
:1001500086DFBFEFEB1AFB0A80E1880E911CA8E056
:10016000EA16F10439F72296C031D10521F0480191
:10017000F12CE12CDFCF0E5F1F4FC016D106B9F670
:10018000DF91CF911F910F91FF90EF90DF90CF9073
:10019000BF90AF909F908F900895FB0125E0EE0FE8
:1001A000FF1F2A95E1F7EA59FF4F9C01205E3F4F60
:1001B00041915191DC014D935D93CD01A217B3079D
:1001C000B9F708950F931F93CF93DF93CDB7DEB7A1
:1001D000A0970FB6F894DEBF0FBECDBF9E012F5F74
:1001E0003F4FAC01405E5F4FD901FC0161917191BD
:1001F0006D937D93E417F507C9F7B901685F7F4FE9
:10020000DC01F90150E040E0008111810D931D9364
:100210004F5F5F4F389644305105B1F72E5F3F4F27
:1002200008962617370761F7A0960FB6F894DEBF39
:100230000FBECDBFDF91CF911F910F9108954F92C7
:100240005F926F927F928F929F92AF92BF92CF9266
:10025000DF92EF92FF920F931F93CF93DF93EA0108
:100260002B0121E0421A51086C013A0184E0680E2A
:10027000711C912C812C7B01E3E0EE0EF11C5601E8
:100280008201F501819191915F018130910541F5E4
:10029000C130D105A1F0C830D105A1F4DF91CF91D3
:1002A0001F910F91FF90EF90DF90CF90BF90AF9094
:1002B0009F908F907F906F905F904F9008958824CB
:1002C0008394912C08301105D0F4C830D10540F446
:1002D000BE01C801E9DE892B19F0C4010196DECF09
:1002E0000F5F1F4F0E151F0561F62196F8E0CF0E28
:1002F000D11CC615D70519F690E080E0CFCF83E07A
:1003000090E0CCCF4F925F926F927F928F929F92AC
:10031000AF92BF92CF92DF92EF92FF920F931F9313
:10032000CF93DF934A01390101975C01EB012197DB
:10033000D12CC12C260183E0440C551C8A95E1F791
:10034000480C591C750110E000E088E0E816F10443
:1003500080F4C830D10568F4F801EE0FFF1FE40DFA
:10036000F51D80819181019721F4A301BE01C70190
:1003700086DE8FEFE81AF80A0F5F1F4F0430110571
:1003800021F721968FEFC81AD80A84E0C816D10445
:1003900089F6DF91CF911F910F91FF90EF90DF9041
:1003A000CF90BF90AF909F908F907F906F905F9015
:1003B0004F90089585E087BB18BA0895FBDF90E061
:1003C00080E08ADE83E0E82EF12C9EEFC92EDD244A
:1003D000DA9401E010E08091640090916500813032
:1003E000910509F452C08230910509F446C0009786
:1003F000B1F7609160007091610030E020E046E06C
:1004000052E080916200909163007CDF86B381FFAF
:1004100072C086E092E0D6DEC0916000D0916100AB
:10042000A0906200B0906300AE01B50186E092E05A
:1004300006DF9093650080936400892B29F4219650
:10044000D0936100C09360002091840130918501B8
:10045000609160007091610046E052E0C50152DF9A
:1004600086E291E051DE8FEF91EE24E081509040E2
:100470002040E1F700C00000AECF90E080E02CDE2D
:100480001093650000936400A6CF60918201709183
:10049000830186E092E081DE809182019091830168
:1004A000019686309105ECF490938301809382014C
:1004B0008091840190918501019685309105B4F475
:1004C00090938501809384011092650010926400DE
:1004D000F0926300E0926200D0926100C0926000EE
:1004E0007ACF1092830110928201E2CF109385019E
:1004F00000938401E9CFC0916200D091630083FF33
:1005000014C0A0906000B0906100A501BE0186E01B
:1005100092E095DE019709F47FCF2FEFA21AB20A7D
:10052000B0926100A0926000ECCF409160005091C9
:10053000610084FF0DC02197BE0186E092E07FDE5E
:10054000892B09F069CFD0936300C093620064CF18
:0C05500085FF62CF2196F0CFF894FFCF1A
:10055C00FEFF03000200000000000000000001008C
:10056C00010001000100000000000000000000007C
:10057C00000000000000000000000000000001006E
:10058C00010001000000000000000100000000005C
:10059C00000000000000000000000000000000004F
:1005AC00000001000000010001000100000000003B
:1005BC00000000000000000000000000000000002F
:1005CC00010001000000000001000100000000001B
:1005DC00000000000000000000000000000000000F
:1005EC0001000100000001000100000000000000FB
:1005FC0000000000000000000000000000000100EE
:10060C0001000000000000000100010000000000DB
:10061C0000000000000000000000000000000000CE
:10062C00000000000000FF00FF00FF00FF00FF00C3
:10063C00FF00FF00FF00FF008100810081008100AE
:10064C0081008100FF00FF00A5009300C900A500F8
:10065C009300C900FF00FF00AB00D500AB00D50034
:10066C00AB00D500FF0005000400030002000100F0
:02067C0000007C
:00000001FF
